{"abi":[{"type":"constructor","inputs":[{"name":"name_","type":"string","internalType":"string"},{"name":"symbol_","type":"string","internalType":"string"},{"name":"initialTokenSupply","type":"uint96","internalType":"uint96"},{"name":"initialSupplyOwner","type":"address","internalType":"address"}],"stateMutability":"nonpayable"},{"type":"fallback","stateMutability":"payable"},{"type":"receive","stateMutability":"payable"},{"type":"function","name":"allowance","inputs":[{"name":"owner","type":"address","internalType":"address"},{"name":"spender","type":"address","internalType":"address"}],"outputs":[{"name":"","type":"uint256","internalType":"uint256"}],"stateMutability":"view"},{"type":"function","name":"approve","inputs":[{"name":"spender","type":"address","internalType":"address"},{"name":"amount","type":"uint256","internalType":"uint256"}],"outputs":[{"name":"","type":"bool","internalType":"bool"}],"stateMutability":"nonpayable"},{"type":"function","name":"balanceOf","inputs":[{"name":"owner","type":"address","internalType":"address"}],"outputs":[{"name":"","type":"uint256","internalType":"uint256"}],"stateMutability":"view"},{"type":"function","name":"cancelOwnershipHandover","inputs":[],"outputs":[],"stateMutability":"payable"},{"type":"function","name":"completeOwnershipHandover","inputs":[{"name":"pendingOwner","type":"address","internalType":"address"}],"outputs":[],"stateMutability":"payable"},{"type":"function","name":"decimals","inputs":[],"outputs":[{"name":"","type":"uint8","internalType":"uint8"}],"stateMutability":"view"},{"type":"function","name":"getSkipNFT","inputs":[{"name":"owner","type":"address","internalType":"address"}],"outputs":[{"name":"","type":"bool","internalType":"bool"}],"stateMutability":"view"},{"type":"function","name":"mirrorERC721","inputs":[],"outputs":[{"name":"","type":"address","internalType":"address"}],"stateMutability":"view"},{"type":"function","name":"name","inputs":[],"outputs":[{"name":"","type":"string","internalType":"string"}],"stateMutability":"view"},{"type":"function","name":"owner","inputs":[],"outputs":[{"name":"result","type":"address","internalType":"address"}],"stateMutability":"view"},{"type":"function","name":"ownershipHandoverExpiresAt","inputs":[{"name":"pendingOwner","type":"address","internalType":"address"}],"outputs":[{"name":"result","type":"uint256","internalType":"uint256"}],"stateMutability":"view"},{"type":"function","name":"renounceOwnership","inputs":[],"outputs":[],"stateMutability":"payable"},{"type":"function","name":"requestOwnershipHandover","inputs":[],"outputs":[],"stateMutability":"payable"},{"type":"function","name":"setBaseURI","inputs":[{"name":"baseURI_","type":"string","internalType":"string"}],"outputs":[],"stateMutability":"nonpayable"},{"type":"function","name":"setSkipNFT","inputs":[{"name":"skipNFT","type":"bool","internalType":"bool"}],"outputs":[{"name":"","type":"bool","internalType":"bool"}],"stateMutability":"nonpayable"},{"type":"function","name":"symbol","inputs":[],"outputs":[{"name":"","type":"string","internalType":"string"}],"stateMutability":"view"},{"type":"function","name":"totalSupply","inputs":[],"outputs":[{"name":"","type":"uint256","internalType":"uint256"}],"stateMutability":"view"},{"type":"function","name":"transfer","inputs":[{"name":"to","type":"address","internalType":"address"},{"name":"amount","type":"uint256","internalType":"uint256"}],"outputs":[{"name":"","type":"bool","internalType":"bool"}],"stateMutability":"nonpayable"},{"type":"function","name":"transferFrom","inputs":[{"name":"from","type":"address","internalType":"address"},{"name":"to","type":"address","internalType":"address"},{"name":"amount","type":"uint256","internalType":"uint256"}],"outputs":[{"name":"","type":"bool","internalType":"bool"}],"stateMutability":"nonpayable"},{"type":"function","name":"transferOwnership","inputs":[{"name":"newOwner","type":"address","internalType":"address"}],"outputs":[],"stateMutability":"payable"},{"type":"function","name":"withdraw","inputs":[],"outputs":[],"stateMutability":"nonpayable"},{"type":"event","name":"Approval","inputs":[{"name":"owner","type":"address","indexed":true,"internalType":"address"},{"name":"spender","type":"address","indexed":true,"internalType":"address"},{"name":"amount","type":"uint256","indexed":false,"internalType":"uint256"}],"anonymous":false},{"type":"event","name":"OwnershipHandoverCanceled","inputs":[{"name":"pendingOwner","type":"address","indexed":true,"internalType":"address"}],"anonymous":false},{"type":"event","name":"OwnershipHandoverRequested","inputs":[{"name":"pendingOwner","type":"address","indexed":true,"internalType":"address"}],"anonymous":false},{"type":"event","name":"OwnershipTransferred","inputs":[{"name":"oldOwner","type":"address","indexed":true,"internalType":"address"},{"name":"newOwner","type":"address","indexed":true,"internalType":"address"}],"anonymous":false},{"type":"event","name":"SkipNFTSet","inputs":[{"name":"owner","type":"address","indexed":true,"internalType":"address"},{"name":"status","type":"bool","indexed":false,"internalType":"bool"}],"anonymous":false},{"type":"event","name":"Transfer","inputs":[{"name":"from","type":"address","indexed":true,"internalType":"address"},{"name":"to","type":"address","indexed":true,"internalType":"address"},{"name":"amount","type":"uint256","indexed":false,"internalType":"uint256"}],"anonymous":false},{"type":"error","name":"AlreadyInitialized","inputs":[]},{"type":"error","name":"ApprovalCallerNotOwnerNorApproved","inputs":[]},{"type":"error","name":"DNAlreadyInitialized","inputs":[]},{"type":"error","name":"DNNotInitialized","inputs":[]},{"type":"error","name":"FnSelectorNotRecognized","inputs":[]},{"type":"error","name":"InsufficientAllowance","inputs":[]},{"type":"error","name":"InsufficientBalance","inputs":[]},{"type":"error","name":"InvalidUnit","inputs":[]},{"type":"error","name":"LinkMirrorContractFailed","inputs":[]},{"type":"error","name":"MirrorAddressIsZero","inputs":[]},{"type":"error","name":"NewOwnerIsZeroAddress","inputs":[]},{"type":"error","name":"NoHandoverRequest","inputs":[]},{"type":"error","name":"SenderNotMirror","inputs":[]},{"type":"error","name":"TokenDoesNotExist","inputs":[]},{"type":"error","name":"TotalSupplyOverflow","inputs":[]},{"type":"error","name":"TransferCallerNotOwnerNorApproved","inputs":[]},{"type":"error","name":"TransferFromIncorrectOwner","inputs":[]},{"type":"error","name":"TransferToZeroAddress","inputs":[]},{"type":"error","name":"Unauthorized","inputs":[]}],"bytecode":{"object":"0x608060405234801561001057600080fd5b5060405161346a38038061346a83398101604081905261002f91610460565b610038336100ae565b6000610044858261058e565b506001610051848261058e565b5060003360405161006190610395565b6001600160a01b039091168152602001604051809103906000f08015801561008d573d6000803e3d6000fd5b5090506100a46001600160601b03841683836100ea565b505050505061064d565b6001600160a01b0316638b78c6d8198190558060007f8be0079c531659141344cd1fd0a4f28419497f9722a3daafe3b4186f6b6457e08180a350565b68a20d6e21d0e52553095468a20d6e21d0e5255308906001600160a01b03161561012757604051633ab534b960e21b815260040160405180910390fd5b6001600160a01b03821661014e576040516339a84a7b60e01b815260040160405180910390fd5b630f4599e560005233602052602060006024601c6000865af1600160005114166101805763d125259c6000526004601cfd5b805463ffffffff60201b19166401000000001781556001810180546001600160a01b0384166001600160a01b0319909116179055831561029c576001600160a01b0383166101e157604051633a954ecd60e21b815260040160405180910390fd5b606084901c670de0b6b3a7640000850463fffffffe1017156102165760405163e5cfe95760e01b815260040160405180910390fd5b80546001600160a01b0316600160a01b6001600160601b03861602178155600061023f846102a2565b80546001600160601b038716600160a01b026001600160a01b0391821617825560008781529192508516907fddf252ad1be2c89b69c2b068fc378daa952ba7f163c4a11628f55a4df523b3ef602082a361029a846001610307565b505b50505050565b6001600160a01b038116600090815268a20d6e21d0e52553136020526040902080546b010000000000000000000000900460011661030257805460ff60581b19166b01000000000000000000000060ff843b151560020260011716021781555b919050565b6000610312836102a2565b80549091506b010000000000000000000000900460021615158215151461035d57805460ff6b01000000000000000000000080830482166002189091160260ff60581b199091161781555b8115156000528260601b60601c7fb5a1de456fff688115a4f75380060c23c8532d14ff85f687cc871456d642039360206000a2505050565b610d85806126e583390190565b634e487b7160e01b600052604160045260246000fd5b600082601f8301126103c957600080fd5b81516001600160401b03808211156103e3576103e36103a2565b604051601f8301601f19908116603f0116810190828211818310171561040b5761040b6103a2565b816040528381526020925086602085880101111561042857600080fd5b600091505b8382101561044a578582018301518183018401529082019061042d565b6000602085830101528094505050505092915050565b6000806000806080858703121561047657600080fd5b84516001600160401b038082111561048d57600080fd5b610499888389016103b8565b955060208701519150808211156104af57600080fd5b506104bc878288016103b8565b604087015190945090506001600160601b03811681146104db57600080fd5b60608601519092506001600160a01b03811681146104f857600080fd5b939692955090935050565b600181811c9082168061051757607f821691505b60208210810361053757634e487b7160e01b600052602260045260246000fd5b50919050565b601f821115610589576000816000526020600020601f850160051c810160208610156105665750805b601f850160051c820191505b8181101561058557828155600101610572565b5050505b505050565b81516001600160401b038111156105a7576105a76103a2565b6105bb816105b58454610503565b8461053d565b602080601f8311600181146105f057600084156105d85750858301515b600019600386901b1c1916600185901b178555610585565b600085815260208120601f198616915b8281101561061f57888601518255948401946001909101908401610600565b508582101561063d5787850151600019600388901b60f8161c191681555b5050505050600190811b01905550565b6120898061065c6000396000f3fe60806040526004361061012e5760003560e01c806354d1f13d116100ab57806395d89b411161006f57806395d89b41146105d8578063a9059cbb146105ed578063dd62ed3e1461060d578063f04e283e1461064c578063f2fde38b1461065f578063fee81cf41461067257610140565b806354d1f13d1461054157806355f804b31461054957806370a0823114610569578063715018a6146105b75780638da5cb5b146105bf57610140565b8063274e430b116100f2578063274e430b146104965780632a6a935d146104b6578063313ce567146104d65780633ccfd60b146104f25780634ef41efc1461050757610140565b806306fdde03146103dc578063095ea7b31461040757806318160ddd1461043757806323b872dd1461046e578063256929621461048e57610140565b3661014057341561013e57600080fd5b005b68a20d6e21d0e525530860003560e01c63e5eb36c88190036101a75760018201546001600160a01b031633146101895760405163ce5a776b60e01b815260040160405180910390fd5b61019d6004356024356044356064356106a5565b6101a76001610a40565b8063813500fc036102135760018201546001600160a01b031633146101df5760405163ce5a776b60e01b815260040160405180910390fd5b600435602890815260443560145268a20d6e21d0e525530b6000908152604881209152602435151590556102136001610a40565b8063e985e9c50361023d57600061022e600435602435610a4a565b905061023b811515610a40565b505b80636352211e0361026457610264610256600435610a73565b6001600160a01b0316610a40565b8063243598790361027d5761027d610256600435610aa0565b8063d10b6e0c036102de5760018201546001600160a01b031633146102b55760405163ce5a776b60e01b815260040160405180910390fd5b60006102c8600435602435604435610afd565b90506102dc816001600160a01b0316610a40565b505b8063081812fc036102f7576102f7610256600435610be2565b8063f5b100ea0361033b576001600160a01b0360043516600090815268a20d6e21d0e5255313602052604090205461033b90600160801b900463ffffffff16610a40565b8063e2c79281036103675768a20d6e21d0e52553085461036790600160801b900463ffffffff16610a40565b8063c87b56dd036103ae57602060405101604052600061038e61038960043590565b610c2e565b90506020810360408251016000818301526020825280601f01601f191682f35b8063b7a94eb8036103c3576103c36001610a40565b604051631e085ca760e11b815260040160405180910390fd5b3480156103e857600080fd5b506103f1610c77565b6040516103fe9190611cc3565b60405180910390f35b34801561041357600080fd5b50610427610422366004611d0d565b610d09565b60405190151581526020016103fe565b34801561044357600080fd5b5068a20d6e21d0e525530854600160a01b90046001600160601b03165b6040519081526020016103fe565b34801561047a57600080fd5b50610427610489366004611d37565b610d1f565b61013e610d8d565b3480156104a257600080fd5b506104276104b1366004611d73565b610ddd565b3480156104c257600080fd5b506104276104d1366004611d8e565b610e2a565b3480156104e257600080fd5b50604051601281526020016103fe565b3480156104fe57600080fd5b5061013e610e3e565b34801561051357600080fd5b5068a20d6e21d0e5255309546001600160a01b03165b6040516001600160a01b0390911681526020016103fe565b61013e610e51565b34801561055557600080fd5b5061013e610564366004611db0565b610e8d565b34801561057557600080fd5b50610460610584366004611d73565b6001600160a01b0316600090815268a20d6e21d0e52553136020526040902054600160a01b90046001600160601b031690565b61013e610ea7565b3480156105cb57600080fd5b50638b78c6d81954610529565b3480156105e457600080fd5b506103f1610eb9565b3480156105f957600080fd5b50610427610608366004611d0d565b610ec8565b34801561061957600080fd5b50610460610628366004611e22565b602890815260149190915268a20d6e21d0e525530f60009081526048812091525490565b61013e61065a366004611d73565b610ed5565b61013e61066d366004611d73565b610f15565b34801561067e57600080fd5b5061046061068d366004611d73565b63389a75e1600c908152600091909152602090205490565b6001600160a01b0383166106cc57604051633a954ecd60e21b815260040160405180910390fd5b68a20d6e21d0e52553095468a20d6e21d0e5255308906001600160a01b03166107085760405163040739bf60e41b815260040160405180910390fd5b600a81016002820160006107528361072e640100000000891089025b6000190160011b90565b60008160031c8360601b0180546007841660051b1c63ffffffff1691505092915050565b63ffffffff1681526020810191909152604001600020546001600160a01b038781169116146107935760405162a1148160e81b815260040160405180910390fd5b856001600160a01b0316836001600160a01b0316146107f4576107b68684610a4a565b6107f457826001600160a01b03166107cd85610be2565b6001600160a01b0316146107f457604051632ce44b5f60e11b815260040160405180910390fd5b6001600160a01b038681166000908152600b84016020526040808220928816825290208154670de0b6b3a7640000906008860190600160a01b90046001600160601b03168083111561085957604051631e9acf1760e31b815260040160405180910390fd5b84546001600160601b03918490038216600160a01b9081026001600160a01b039283161787558554818104841686019093160291161783556005860160601b600889901c015460ff89161c600116156108e5576005860160601b600889901c018054600160ff8b161b191690556000888152600487016020526040902080546001600160a01b03191690555b6001600160a01b038a166000908152602082905260408120855460001963ffffffff600160801b80840482169290920180821690920263ffffffff60801b19909316929092178855600381901c631fffffff16606084901b015492939260059190911b60e0161c1690506000610965886000198d01600190811b0161072e565b9050610978838263ffffffff1684610f3c565b6109938860001963ffffffff851601600190811b0183610f3c565b5050835463ffffffff60801b198116600160801b9182900463ffffffff908116600181019091169092021785556001600160a01b038b1660009081526020849052604090209091506109e690828b610f3c565b6109fb868a6109f5878e610f67565b84610ff4565b50816000528860601b60601c8a60601b60601c7fddf252ad1be2c89b69c2b068fc378daa952ba7f163c4a11628f55a4df523b3ef60206000a350505050505050505050565b8060005260206000f35b6028818152601483905268a20d6e21d0e525530b60009081526048812091525415155b92915050565b6000610a7e82611037565b610a9b5760405163677510db60e11b815260040160405180910390fd5b610a6d825b600068a20d6e21d0e525530868a20d6e21d0e525530a82610ad668a20d6e21d0e525531261072e64010000000088108802610724565b63ffffffff1681526020810191909152604001600020546001600160a01b03169392505050565b600068a20d6e21d0e525530868a20d6e21d0e525530a82610b3368a20d6e21d0e525531261072e64010000000089108902610724565b63ffffffff1681526020810191909152604001600020546001600160a01b03908116925083168214610b8657610b698284610a4a565b610b86576040516367d9dca160e11b815260040160405180910390fd5b6000848152600482016020526040902080546001600160a01b0319166001600160a01b0387169081179091556005820160601b600886901c018054600160ff881690811b1991909116921515901b919091179055509392505050565b6000610bed82611037565b610c0a5760405163677510db60e11b815260040160405180910390fd5b50600090815268a20d6e21d0e525530c60205260409020546001600160a01b031690565b606060028054610c3d90611e55565b159050610c72576002610c4f83611054565b604051602001610c60929190611e8f565b60405160208183030381529060405290505b919050565b606060008054610c8690611e55565b80601f0160208091040260200160405190810160405280929190818152602001828054610cb290611e55565b8015610cff5780601f10610cd457610100808354040283529160200191610cff565b820191906000526020600020905b815481529060010190602001808311610ce257829003601f168201915b5050505050905090565b6000610d16338484611098565b50600192915050565b336028908152601484905268a20d6e21d0e525530f6000908152604881209181905281549091906000198114610d765780841115610d70576040516313be252b60e01b815260040160405180910390fd5b83810382555b610d818686866110fa565b50600195945050505050565b60006202a30067ffffffffffffffff164201905063389a75e1600c5233600052806020600c2055337fdbf36a107da19e49527a7176a1babf963b4b0ff8cde35ee35d6cd8f1f9ac7e1d600080a250565b6001600160a01b038116600090815268a20d6e21d0e5255313602052604081208054600160581b9004600116610e1757823b5b9392505050565b54600160581b9004600216151592915050565b6000610e36338361199e565b506001919050565b610e46611a1c565b610e4f33611a37565b565b63389a75e1600c523360005260006020600c2055337ffa7b8eab7da67f412cc9575ed43464468f9bfbae89d1675917346ca6d8fe3c92600080a2565b610e95611a1c565b6002610ea2828483611f7c565b505050565b610eaf611a1c565b610e4f6000611a53565b606060018054610c8690611e55565b6000610d163384846110fa565b610edd611a1c565b63389a75e1600c52806000526020600c208054421115610f0557636f5e88186000526004601cfd5b60009055610f1281611a53565b50565b610f1d611a1c565b8060601b610f3357637448fbae6000526004601cfd5b610f1281611a53565b8160031c8360601b016007831660051b815480821c841863ffffffff16821b81188355505050505050565b8154600160601b900463ffffffff1668a20d6e21d0e525530881610fed57805463ffffffff198116600163ffffffff928316019182169081178355855463ffffffff60601b1916600160601b82021786556000818152600284016020526040902080546001600160a01b0319166001600160a01b038716179055909250610fed57600080fd5b5092915050565b600183038060021c8560601b0180546003831660061b92508463ffffffff168460201b178082851c1867ffffffffffffffff16841b821883555050505050505050565b60008061104383610aa0565b6001600160a01b0316141592915050565b60606080604051019050602081016040526000815280600019835b928101926030600a8206018453600a90048061106f575050819003601f19909101908152919050565b6028828152601484905268a20d6e21d0e525530f600090815260488120915281905560008181526001600160a01b0380841691908516907f8c5be1e5ebec7d5bd14f71427d1e84f3dd0314c0f7b2291e5b200ac8c7c3b92590602090a3505050565b6001600160a01b03821661112157604051633a954ecd60e21b815260040160405180910390fd5b6001600160a01b038316600090815268a20d6e21d0e52553136020526040812068a20d6e21d0e52553089161115585611a91565b60018401549091506001600160a01b03166111835760405163040739bf60e41b815260040160405180910390fd5b6111e560405180610140016040528060008152602001600081526020016000815260200160008152602001600081526020016000815260200160008152602001600063ffffffff16815260200160008152602001600063ffffffff1681525090565b825463ffffffff600160801b808304821660408501528454041660608301526001600160601b03600160a01b909104168086111561123657604051631e9acf1760e31b815260040160405180910390fd5b83546001600160601b0391879003828116600160a01b9081026001600160a01b03938416178755855481810485168a01948516909102921691909117845560408301519091906112a79061128f670de0b6b3a764000090565b848161129d5761129d61203d565b0480821191030290565b83528354600160581b900460021661130257876001600160a01b0316896001600160a01b0316036112e057825160408401510360608401525b6112fc670de0b6b3a76400008204846060015180821191030290565b60208401525b505061130c600190565b1561153f57600061133e826040015161133384600001518560200151808218908211021890565b808218908211021890565b90508061134b575061153f565b8151819003825260208201805182900390526001600160a01b038088169089160361138057606082018051909101905261153f565b60006113e7828a8a6040805180820182526000815260606020808301828152845163144027d381526001600160a01b03978816928101929092529490951685840152848101526080840185815260059590951b840160a09081019092529390915201815290565b6001600160a01b03808b166000908152600889016020526040808220928c168252902091925090611418868b610f67565b63ffffffff1660e08601526060850151938401935b6040860180516000190190819052600381901c606085901b015460009160051b60e0161c63ffffffff1663ffffffff16905061146a838383610f3c565b61147d8a600a01828960e0015185610ff4565b84518181526020018552600881901c60058b0160601b015460ff82161c600116156114db5760058a0160601b600882901c018054600160ff84161b19169055600081815260048b016020526040902080546001600160a01b03191690555b5084816001019150810361142d5760608601819052865463ffffffff808316600160801b90810263ffffffff60801b19938416178a5560408901518b54921602911617885560018901546115399085906001600160a01b0316611aec565b50505050505b80516020820151855463ffffffff600160801b80830482168401859003608087018190529091160263ffffffff60801b19909116178655600a8601916000916115889101611b21565b8654600160601b900463ffffffff1661012085015283519091501561171957606089901b6001176020828101919091526001600160a01b038a166000908152600888019091526040808220908501518551810360a08701819052885463ffffffff909116600160801b0263ffffffff60801b199091161788556101208601515b60001991909101600381901c606084901b0154909190600583901b60e0161c63ffffffff1661163a8782600080610ff4565b8551602080880151600884901b17825201865260068b0160601b600882901c018054600160ff84161b191690558415611687576116878b6009018380600101945063ffffffff1683610f3c565b600881901c60058c0160601b015460ff82161c600116156116db5760058b0160601b600882901c018054600160ff84161b19169055600081815260048c016020526040902080546001600160a01b03191690555b508660a0015182036116085783156117145763ffffffff811661012088018190528a5463ffffffff60601b1916600160601b909102178a555b505050505b60208301511561193757606088901b60208201526001600160a01b03881660009081526008870160205260409020611751858a610f67565b63ffffffff1660e08501526000670de0b6b3a76400008854600160a01b90046001600160601b0316816117865761178661203d565b89549190049150640100000000900463ffffffff1681811180159091021761010086015260608501516020860151810160c08701819052875463ffffffff60801b1916600160801b63ffffffff928316021788558954600160401b9004165b600087610120015163ffffffff168263ffffffff16146118355760098b0160601b631fffffff600384901c160154600183019260e060059190911b161c63ffffffff1663ffffffff169050611894565b506101008701515b61184e87600019830160011b61072e565b63ffffffff16156118805761187961186d8c6006018360010187611b68565b85811180159091021790565b905061183d565b600181018481118015909102176101008901525b600881901c60068c0160601b018054600160ff84161b80199091161790556118bd858483610f3c565b6118d387828a60e0015186806001019750610ff4565b8551602080880151600884901b178252018652508660c0015182036117e557895461010088015163ffffffff9081166401000000000267ffffffff000000001991909316600160401b02166bffffffffffffffff0000000019909116171789555050505b6040810151511561195b57600186015461195b9082906001600160a01b0316611c63565b5050846000528560601b60601c8760601b60601c7fddf252ad1be2c89b69c2b068fc378daa952ba7f163c4a11628f55a4df523b3ef60206000a350505050505050565b60006119a983611a91565b8054909150600160581b90046002161515821515146119e457805460ff600160581b80830482166002189091160260ff60581b199091161781555b8115156000528260601b60601c7fb5a1de456fff688115a4f75380060c23c8532d14ff85f687cc871456d642039360206000a2505050565b638b78c6d819543314610e4f576382b429006000526004601cfd5b60003860003847855af1610f125763b12d13eb6000526004601cfd5b638b78c6d81980546001600160a01b039092169182907f8be0079c531659141344cd1fd0a4f28419497f9722a3daafe3b4186f6b6457e0600080a355565b6001600160a01b038116600090815268a20d6e21d0e5255313602052604090208054600160581b9004600116610c7257805460ff60581b1916600160581b60ff933b1515600202600117939093169290920291909117815590565b6020820151805160051b60840160808203915060208282601c85016000875af1600183511416611b1b57600082fd5b50505050565b611b4560405180606001604052806000815260200160008152602001606081525090565b604051828152806020018360051b81016040528183604001528083525050919050565b6000801990508360601b8360081c81018054198560ff161c8560ff161b80611bbd578460081c83015b6001830192508254199150808311821715611b915780831115611bbb5760ff86191691821b90911c905b505b8015611c595782820360081b7e1f0d1e100c1d070f090b19131c1706010e11080a1a141802121b1503160405821960010183166101e07a1412563212c14164235266736f7425221143267a4524367526767760fc7b2aaaaaaaba69a69a6db6db6db2cb2cb2ce739ce73def7bdeffffffff840260f81c161b60f71c1690811c63d76453e004601f169190911a1717858111878210176000031793505b5050509392505050565b60408201516040810363263c69d68152602080820152815160051b604401915060208183601c84016000875af1600182511416611b1b57600081fd5b60005b83811015611cba578181015183820152602001611ca2565b50506000910152565b6020815260008251806020840152611ce2816040850160208701611c9f565b601f01601f19169190910160400192915050565b80356001600160a01b0381168114610c7257600080fd5b60008060408385031215611d2057600080fd5b611d2983611cf6565b946020939093013593505050565b600080600060608486031215611d4c57600080fd5b611d5584611cf6565b9250611d6360208501611cf6565b9150604084013590509250925092565b600060208284031215611d8557600080fd5b610e1082611cf6565b600060208284031215611da057600080fd5b81358015158114610e1057600080fd5b60008060208385031215611dc357600080fd5b823567ffffffffffffffff80821115611ddb57600080fd5b818501915085601f830112611def57600080fd5b813581811115611dfe57600080fd5b866020828501011115611e1057600080fd5b60209290920196919550909350505050565b60008060408385031215611e3557600080fd5b611e3e83611cf6565b9150611e4c60208401611cf6565b90509250929050565b600181811c90821680611e6957607f821691505b602082108103611e8957634e487b7160e01b600052602260045260246000fd5b50919050565b6000808454611e9d81611e55565b60018281168015611eb55760018114611eca57611ef9565b60ff1984168752821515830287019450611ef9565b8860005260208060002060005b85811015611ef05781548a820152908401908201611ed7565b50505082870194505b505050508351611f0d818360208801611c9f565b01949350505050565b634e487b7160e01b600052604160045260246000fd5b601f821115610ea2576000816000526020600020601f850160051c81016020861015611f555750805b601f850160051c820191505b81811015611f7457828155600101611f61565b505050505050565b67ffffffffffffffff831115611f9457611f94611f16565b611fa883611fa28354611e55565b83611f2c565b6000601f841160018114611fdc5760008515611fc45750838201355b600019600387901b1c1916600186901b178355612036565b600083815260209020601f19861690835b8281101561200d5786850135825560209485019460019092019101611fed565b508682101561202a5760001960f88860031b161c19848701351681555b505060018560011b0183555b5050505050565b634e487b7160e01b600052601260045260246000fdfea2646970667358221220d5a27e8ff288e248ecd5f6b02bef76c6be1c04727733197b723836ba274bfffd64736f6c634300081900336080604052348015600f57600080fd5b50604051610d85380380610d85833981016040819052602c916058565b683602298b8c10b0123180546001600160a01b0319166001600160a01b03929092169190911790556086565b600060208284031215606957600080fd5b81516001600160a01b0381168114607f57600080fd5b9392505050565b610cf0806100956000396000f3fe60806040526004361061010d5760003560e01c80636cef16e61161009557806397e5311c1161006457806397e5311c146104d7578063a22cb465146104ec578063b88d4fde1461050c578063c87b56dd1461051f578063e985e9c51461053f5761011f565b80636cef16e61461046757806370a082311461047c5780638da5cb5b1461049c57806395d89b41146104c25761011f565b806318160ddd116100dc57806318160ddd146103de57806323b872dd14610401578063243598791461041457806342842e0e146104345780636352211e146104475761011f565b806301ffc9a71461031f57806306fdde0314610371578063081812fc14610393578063095ea7b3146103cb5761011f565b3661011f57341561011d57600080fd5b005b683602298b8c10b0123060003560e01c63263c69d68190036101d55781546001600160a01b0316331461016557604051631b1e598960e11b815260040160405180910390fd5b600435602401602081033560051b81015b8082146101c85781358060601c816001168260a01b60a81c811583028284027fddf252ad1be2c89b69c2b068fc378daa952ba7f163c4a11628f55a4df523b3ef600038a4505050816020019150610176565b5050600160005260206000f35b8063144027d30361026b5781546001600160a01b0316331461020a57604051631b1e598960e11b815260040160405180910390fd5b600435602435604435602401602081033560051b81015b80821461025c57813583857fddf252ad1be2c89b69c2b068fc378daa952ba7f163c4a11628f55a4df523b3ef600038a4816020019150610221565b50505050600160005260206000f35b80630f4599e5036103065760018201546001600160a01b0316156102c15760018201546001600160a01b03166004356001600160a01b0316146102c1576040516362cf623d60e11b815260040160405180910390fd5b81546001600160a01b0316156102ea57604051635fb2b52360e11b815260040160405180910390fd5b81546001600160a01b0319163317825560016000908152602090f35b604051631e085ca760e11b815260040160405180910390fd5b34801561032b57600080fd5b5061035c61033a366004610a7a565b6301ffc9a760e09190911c9081146380ac58cd821417635b5e139f9091141790565b60405190151581526020015b60405180910390f35b34801561037d57600080fd5b5061038661055f565b6040516103689190610aab565b34801561039f57600080fd5b506103b36103ae366004610afa565b610575565b6040516001600160a01b039091168152602001610368565b61011d6103d9366004610b2f565b61058d565b3480156103ea57600080fd5b506103f3610613565b604051908152602001610368565b61011d61040f366004610b59565b610625565b34801561042057600080fd5b506103b361042f366004610afa565b6106b4565b61011d610442366004610b59565b6106c6565b34801561045357600080fd5b506103b3610462366004610afa565b6106f8565b34801561047357600080fd5b5061035c61070a565b34801561048857600080fd5b506103f3610497366004610b95565b6107c5565b3480156104a857600080fd5b50683602298b8c10b01232546001600160a01b03166103b3565b3480156104ce57600080fd5b506103866107e0565b3480156104e357600080fd5b506103b36107f1565b3480156104f857600080fd5b5061011d610507366004610bb0565b610826565b61011d61051a366004610bec565b6108a9565b34801561052b57600080fd5b5061038661053a366004610afa565b610904565b34801561054b57600080fd5b5061035c61055a366004610c87565b610914565b60606105706306fdde036000610940565b905090565b600061058763081812fc8360006109a6565b92915050565b60006105976107f1565b90508260601b60601c925060405163d10b6e0c600052836020528260405233606052602060006064601c34865af1601f3d11166105d7573d6000823e3d81fd5b806040525060006060528183600c5160601c7f8c5be1e5ebec7d5bd14f71427d1e84f3dd0314c0f7b2291e5b200ac8c7c3b925600038a4505050565b600061057063e2c792816000806109a6565b600061062f6107f1565b90508360601b60601c93508260601b60601c925060405163e5eb36c881528460208201528360408201528260608201523360808201526020816084601c840134865af1600182511416610685573d6000823e3d81fd5b508183857fddf252ad1be2c89b69c2b068fc378daa952ba7f163c4a11628f55a4df523b3ef600038a450505050565b600061058763243598798360006109a6565b6106d1838383610625565b813b156106f3576106f3838383604051806020016040528060008152506109ee565b505050565b6000610587636352211e8360006109a6565b60008060006107176107f1565b9050638da5cb5b600052602060006004601c845afa600c51683602298b8c10b0123254601f3d119290921660609190911c029250683602298b8c10b01230906001600160a01b0390811690841681146107ba576002820180546001600160a01b0319166001600160a01b0386811691821790925560405190918316907f8be0079c531659141344cd1fd0a4f28419497f9722a3daafe3b4186f6b6457e090600090a35b600194505050505090565b600061058763f5b100ea836001600160a01b031660006109a6565b60606105706395d89b416000610940565b683602298b8c10b01230546001600160a01b03168061082357604051632d9523d760e11b815260040160405180910390fd5b90565b60006108306107f1565b90508260601b60601c925060405163813500fc6000528360205282151560405233606052602060006064601c34865af160016000511416610874573d6000823e3d81fd5b83337f17307eab39ab6107e8899845ad3d59bd9653f200f220920489ca2b5937696c3160206040a36040525050600060605250565b6108b4858585610625565b833b156108fd576108fd85858585858080601f0160208091040260200160405190810160405280939291908181526020018383808284376000920191909152506109ee92505050565b5050505050565b606061058763c87b56dd83610940565b600061093763e985e9c5846001600160a01b0316846001600160a01b03166109a6565b15159392505050565b6060600061094c6107f1565b9050604051915083600052826020526000806024601c845afa610972573d6000833e3d82fd5b60206000803e6020600051833e8151602060005101602084013e815160208301016000815260208101604052505092915050565b6000806109b16107f1565b9050604051856000528460205283604052602060006044601c855afa601f3d11166109df573d6000823e3d81fd5b60405250506000519392505050565b60405163150b7a028082523360208301528560601b60601c604083015283606083015260808083015282518060a08401528015610a35578060c08401826020870160045afa505b60208360a48301601c860160008a5af1610a58573d15610a58573d6000843e3d83fd5b508060e01b825114610a725763d1a57ed66000526004601cfd5b505050505050565b600060208284031215610a8c57600080fd5b81356001600160e01b031981168114610aa457600080fd5b9392505050565b60006020808352835180602085015260005b81811015610ad957858101830151858201604001528201610abd565b506000604082860101526040601f19601f8301168501019250505092915050565b600060208284031215610b0c57600080fd5b5035919050565b80356001600160a01b0381168114610b2a57600080fd5b919050565b60008060408385031215610b4257600080fd5b610b4b83610b13565b946020939093013593505050565b600080600060608486031215610b6e57600080fd5b610b7784610b13565b9250610b8560208501610b13565b9150604084013590509250925092565b600060208284031215610ba757600080fd5b610aa482610b13565b60008060408385031215610bc357600080fd5b610bcc83610b13565b915060208301358015158114610be157600080fd5b809150509250929050565b600080600080600060808688031215610c0457600080fd5b610c0d86610b13565b9450610c1b60208701610b13565b935060408601359250606086013567ffffffffffffffff80821115610c3f57600080fd5b818801915088601f830112610c5357600080fd5b813581811115610c6257600080fd5b896020828501011115610c7457600080fd5b9699959850939650602001949392505050565b60008060408385031215610c9a57600080fd5b610ca383610b13565b9150610cb160208401610b13565b9050925092905056fea2646970667358221220149e660c08959ffbc7707c6a97fbc19561840ada591eea2e65b018d5d3ef5e2a64736f6c63430008190033","linkReferences":{}},"methodIdentifiers":{"allowance(address,address)":"dd62ed3e","approve(address,uint256)":"095ea7b3","balanceOf(address)":"70a08231","cancelOwnershipHandover()":"54d1f13d","completeOwnershipHandover(address)":"f04e283e","decimals()":"313ce567","getSkipNFT(address)":"274e430b","mirrorERC721()":"4ef41efc","name()":"06fdde03","owner()":"8da5cb5b","ownershipHandoverExpiresAt(address)":"fee81cf4","renounceOwnership()":"715018a6","requestOwnershipHandover()":"25692962","setBaseURI(string)":"55f804b3","setSkipNFT(bool)":"2a6a935d","symbol()":"95d89b41","totalSupply()":"18160ddd","transfer(address,uint256)":"a9059cbb","transferFrom(address,address,uint256)":"23b872dd","transferOwnership(address)":"f2fde38b","withdraw()":"3ccfd60b"},"id":25}